{
  "_format": "hh-sol-artifact-1",
  "contractName": "Marketplace",
  "sourceName": "contracts/Marketplace.sol",
  "abi": [
    {
      "inputs": [
        {
          "internalType": "address",
          "name": "_nftContract",
          "type": "address"
        },
        {
          "internalType": "address",
          "name": "initialOwner",
          "type": "address"
        }
      ],
      "stateMutability": "nonpayable",
      "type": "constructor"
    },
    {
      "inputs": [
        {
          "internalType": "address",
          "name": "owner",
          "type": "address"
        }
      ],
      "name": "OwnableInvalidOwner",
      "type": "error"
    },
    {
      "inputs": [
        {
          "internalType": "address",
          "name": "account",
          "type": "address"
        }
      ],
      "name": "OwnableUnauthorizedAccount",
      "type": "error"
    },
    {
      "inputs": [],
      "name": "ReentrancyGuardReentrantCall",
      "type": "error"
    },
    {
      "anonymous": false,
      "inputs": [
        {
          "indexed": true,
          "internalType": "uint256",
          "name": "tokenId",
          "type": "uint256"
        },
        {
          "indexed": true,
          "internalType": "address",
          "name": "seller",
          "type": "address"
        }
      ],
      "name": "NFTDelisted",
      "type": "event"
    },
    {
      "anonymous": false,
      "inputs": [
        {
          "indexed": true,
          "internalType": "uint256",
          "name": "tokenId",
          "type": "uint256"
        },
        {
          "indexed": true,
          "internalType": "address",
          "name": "seller",
          "type": "address"
        },
        {
          "indexed": false,
          "internalType": "uint256",
          "name": "price",
          "type": "uint256"
        }
      ],
      "name": "NFTListed",
      "type": "event"
    },
    {
      "anonymous": false,
      "inputs": [
        {
          "indexed": true,
          "internalType": "uint256",
          "name": "tokenId",
          "type": "uint256"
        },
        {
          "indexed": true,
          "internalType": "address",
          "name": "seller",
          "type": "address"
        },
        {
          "indexed": true,
          "internalType": "address",
          "name": "buyer",
          "type": "address"
        },
        {
          "indexed": false,
          "internalType": "uint256",
          "name": "price",
          "type": "uint256"
        }
      ],
      "name": "NFTSold",
      "type": "event"
    },
    {
      "anonymous": false,
      "inputs": [
        {
          "indexed": true,
          "internalType": "address",
          "name": "previousOwner",
          "type": "address"
        },
        {
          "indexed": true,
          "internalType": "address",
          "name": "newOwner",
          "type": "address"
        }
      ],
      "name": "OwnershipTransferred",
      "type": "event"
    },
    {
      "anonymous": false,
      "inputs": [
        {
          "indexed": false,
          "internalType": "uint256",
          "name": "oldFee",
          "type": "uint256"
        },
        {
          "indexed": false,
          "internalType": "uint256",
          "name": "newFee",
          "type": "uint256"
        }
      ],
      "name": "PlatformFeeUpdated",
      "type": "event"
    },
    {
      "inputs": [
        {
          "internalType": "uint256",
          "name": "tokenId",
          "type": "uint256"
        }
      ],
      "name": "buyNFT",
      "outputs": [],
      "stateMutability": "payable",
      "type": "function"
    },
    {
      "inputs": [
        {
          "internalType": "uint256",
          "name": "tokenId",
          "type": "uint256"
        }
      ],
      "name": "delistNFT",
      "outputs": [],
      "stateMutability": "nonpayable",
      "type": "function"
    },
    {
      "inputs": [
        {
          "internalType": "uint256",
          "name": "tokenId",
          "type": "uint256"
        }
      ],
      "name": "emergencyDelistNFT",
      "outputs": [],
      "stateMutability": "nonpayable",
      "type": "function"
    },
    {
      "inputs": [],
      "name": "getActiveListingsCount",
      "outputs": [
        {
          "internalType": "uint256",
          "name": "",
          "type": "uint256"
        }
      ],
      "stateMutability": "view",
      "type": "function"
    },
    {
      "inputs": [],
      "name": "getAllListedNFTs",
      "outputs": [
        {
          "internalType": "uint256[]",
          "name": "tokenIds",
          "type": "uint256[]"
        },
        {
          "internalType": "address[]",
          "name": "sellers",
          "type": "address[]"
        },
        {
          "internalType": "uint256[]",
          "name": "prices",
          "type": "uint256[]"
        }
      ],
      "stateMutability": "view",
      "type": "function"
    },
    {
      "inputs": [],
      "name": "getContractInfo",
      "outputs": [
        {
          "internalType": "address",
          "name": "nftContractAddress",
          "type": "address"
        },
        {
          "internalType": "uint256",
          "name": "totalListings",
          "type": "uint256"
        },
        {
          "internalType": "uint256",
          "name": "activeListings",
          "type": "uint256"
        },
        {
          "internalType": "uint256",
          "name": "platformFee",
          "type": "uint256"
        }
      ],
      "stateMutability": "view",
      "type": "function"
    },
    {
      "inputs": [],
      "name": "getListedTokenIds",
      "outputs": [
        {
          "internalType": "uint256[]",
          "name": "",
          "type": "uint256[]"
        }
      ],
      "stateMutability": "view",
      "type": "function"
    },
    {
      "inputs": [
        {
          "internalType": "uint256",
          "name": "tokenId",
          "type": "uint256"
        }
      ],
      "name": "getListing",
      "outputs": [
        {
          "internalType": "address",
          "name": "seller",
          "type": "address"
        },
        {
          "internalType": "uint256",
          "name": "price",
          "type": "uint256"
        },
        {
          "internalType": "bool",
          "name": "active",
          "type": "bool"
        }
      ],
      "stateMutability": "view",
      "type": "function"
    },
    {
      "inputs": [
        {
          "internalType": "uint256",
          "name": "tokenId",
          "type": "uint256"
        }
      ],
      "name": "getListingDetails",
      "outputs": [
        {
          "internalType": "address",
          "name": "seller",
          "type": "address"
        },
        {
          "internalType": "uint256",
          "name": "price",
          "type": "uint256"
        },
        {
          "internalType": "bool",
          "name": "active",
          "type": "bool"
        }
      ],
      "stateMutability": "view",
      "type": "function"
    },
    {
      "inputs": [
        {
          "internalType": "uint256[]",
          "name": "tokenIds",
          "type": "uint256[]"
        }
      ],
      "name": "getMultipleListings",
      "outputs": [
        {
          "internalType": "address[]",
          "name": "sellers",
          "type": "address[]"
        },
        {
          "internalType": "uint256[]",
          "name": "prices",
          "type": "uint256[]"
        },
        {
          "internalType": "bool[]",
          "name": "actives",
          "type": "bool[]"
        }
      ],
      "stateMutability": "view",
      "type": "function"
    },
    {
      "inputs": [],
      "name": "hairStyleNFT",
      "outputs": [
        {
          "internalType": "contract HairStyleNFT",
          "name": "",
          "type": "address"
        }
      ],
      "stateMutability": "view",
      "type": "function"
    },
    {
      "inputs": [
        {
          "internalType": "uint256",
          "name": "tokenId",
          "type": "uint256"
        }
      ],
      "name": "isListedForSale",
      "outputs": [
        {
          "internalType": "bool",
          "name": "",
          "type": "bool"
        }
      ],
      "stateMutability": "view",
      "type": "function"
    },
    {
      "inputs": [
        {
          "internalType": "uint256",
          "name": "tokenId",
          "type": "uint256"
        }
      ],
      "name": "isNFTListed",
      "outputs": [
        {
          "internalType": "bool",
          "name": "",
          "type": "bool"
        }
      ],
      "stateMutability": "view",
      "type": "function"
    },
    {
      "inputs": [
        {
          "internalType": "uint256",
          "name": "tokenId",
          "type": "uint256"
        },
        {
          "internalType": "uint256",
          "name": "price",
          "type": "uint256"
        }
      ],
      "name": "listNFT",
      "outputs": [],
      "stateMutability": "nonpayable",
      "type": "function"
    },
    {
      "inputs": [],
      "name": "nftContract",
      "outputs": [
        {
          "internalType": "contract IERC721",
          "name": "",
          "type": "address"
        }
      ],
      "stateMutability": "view",
      "type": "function"
    },
    {
      "inputs": [],
      "name": "owner",
      "outputs": [
        {
          "internalType": "address",
          "name": "",
          "type": "address"
        }
      ],
      "stateMutability": "view",
      "type": "function"
    },
    {
      "inputs": [],
      "name": "platformFeePercent",
      "outputs": [
        {
          "internalType": "uint256",
          "name": "",
          "type": "uint256"
        }
      ],
      "stateMutability": "view",
      "type": "function"
    },
    {
      "inputs": [],
      "name": "renounceOwnership",
      "outputs": [],
      "stateMutability": "nonpayable",
      "type": "function"
    },
    {
      "inputs": [
        {
          "internalType": "uint256",
          "name": "",
          "type": "uint256"
        }
      ],
      "name": "sales",
      "outputs": [
        {
          "internalType": "address",
          "name": "seller",
          "type": "address"
        },
        {
          "internalType": "uint256",
          "name": "price",
          "type": "uint256"
        },
        {
          "internalType": "bool",
          "name": "active",
          "type": "bool"
        }
      ],
      "stateMutability": "view",
      "type": "function"
    },
    {
      "inputs": [
        {
          "internalType": "uint256",
          "name": "_platformFeePercent",
          "type": "uint256"
        }
      ],
      "name": "setPlatformFee",
      "outputs": [],
      "stateMutability": "nonpayable",
      "type": "function"
    },
    {
      "inputs": [
        {
          "internalType": "address",
          "name": "newOwner",
          "type": "address"
        }
      ],
      "name": "transferOwnership",
      "outputs": [],
      "stateMutability": "nonpayable",
      "type": "function"
    },
    {
      "inputs": [],
      "name": "withdrawFees",
      "outputs": [],
      "stateMutability": "nonpayable",
      "type": "function"
    }
  ],
  "bytecode": "0x608060405260fa6004553480156200001657600080fd5b5060405162001ee038038062001ee08339810160408190526200003991620001c8565b806001600160a01b0381166200006a57604051631e4fbdf760e01b8152600060048201526024015b60405180910390fd5b62000075816200015b565b50600180556001600160a01b038216620000d25760405162461bcd60e51b815260206004820152601c60248201527f496e76616c6964204e465420636f6e7472616374206164647265737300000000604482015260640162000061565b6001600160a01b0381166200012a5760405162461bcd60e51b815260206004820152601560248201527f496e76616c6964206f776e657220616464726573730000000000000000000000604482015260640162000061565b50600580546001600160a01b039092166001600160a01b031992831681179091556006805490921617905562000200565b600080546001600160a01b038381166001600160a01b0319831681178455604051919092169283917f8be0079c531659141344cd1fd0a4f28419497f9722a3daafe3b4186f6b6457e09190a35050565b80516001600160a01b0381168114620001c357600080fd5b919050565b60008060408385031215620001dc57600080fd5b620001e783620001ab565b9150620001f760208401620001ab565b90509250929050565b611cd080620002106000396000f3fe6080604052600436106101355760003560e01c80638da5cb5b116100ab578063b5f522f71161006f578063b5f522f7146103ed578063c6618c2c14610437578063cb917b9c14610459578063d56d229d14610479578063f2fde38b14610499578063fb05da2e1461016f57600080fd5b80638da5cb5b1461032c5780638f567d111461034a57806394383f141461036a578063adb78eac1461038a578063b3d86e63146103be57600080fd5b80634b58ffaa116100fd5780634b58ffaa1461026857806351ed82881461028c578063715018a61461029f5780637b55927c146102b45780637cc1f867146102d75780638c639a851461031657600080fd5b80630b69b0821461013a578063107a274a1461016f57806312e8e2c3146101f9578063191aa17e1461021b578063476343ee14610253575b600080fd5b34801561014657600080fd5b5061015a610155366004611937565b6104b9565b60405190151581526020015b60405180910390f35b34801561017b57600080fd5b506101d261018a366004611937565b600090815260026020818152604092839020835160608101855281546001600160a01b03168082526001830154938201849052919093015460ff161515929093018290529192565b604080516001600160a01b0390941684526020840192909252151590820152606001610166565b34801561020557600080fd5b50610219610214366004611937565b6104e4565b005b34801561022757600080fd5b5060065461023b906001600160a01b031681565b6040516001600160a01b039091168152602001610166565b34801561025f57600080fd5b50610219610588565b34801561027457600080fd5b5061027d61066f565b604051610166939291906119c4565b61021961029a366004611937565b610878565b3480156102ab57600080fd5b50610219610d94565b3480156102c057600080fd5b506102c9610da8565b604051908152602001610166565b3480156102e357600080fd5b506102ec610db7565b604080516001600160a01b0390951685526020850193909352918301526060820152608001610166565b34801561032257600080fd5b506102c960045481565b34801561033857600080fd5b506000546001600160a01b031661023b565b34801561035657600080fd5b50610219610365366004611937565b610deb565b34801561037657600080fd5b50610219610385366004611a07565b610eb2565b34801561039657600080fd5b5061015a6103a5366004611937565b6000908152600260208190526040909120015460ff1690565b3480156103ca57600080fd5b506103de6103d9366004611a3f565b61128b565b60405161016693929190611afd565b3480156103f957600080fd5b506101d2610408366004611937565b60026020819052600091825260409091208054600182015491909201546001600160a01b039092169160ff1683565b34801561044357600080fd5b5061044c611473565b6040516101669190611b68565b34801561046557600080fd5b50610219610474366004611937565b611577565b34801561048557600080fd5b5060055461023b906001600160a01b031681565b3480156104a557600080fd5b506102196104b4366004611b97565b611682565b60008181526002602081905260408220015460ff1680156104de57506104de826116bd565b92915050565b6104ec611738565b6103e88111156105435760405162461bcd60e51b815260206004820152601e60248201527f506c6174666f726d206665652063616e6e6f742065786365656420313025000060448201526064015b60405180910390fd5b600480549082905560408051828152602081018490527fd347e206f25a89b917fc9482f1a2d294d749baa4dc9bde7fb495ee11fe491643910160405180910390a15050565b610590611738565b47806105d45760405162461bcd60e51b81526020600482015260136024820152724e6f206665657320746f20776974686472617760681b604482015260640161053a565b600080546040516001600160a01b039091169083908381818185875af1925050503d8060008114610621576040519150601f19603f3d011682016040523d82523d6000602084013e610626565b606091505b505090508061066b5760405162461bcd60e51b815260206004820152601160248201527015da5d1a191c985dd85b0819985a5b1959607a1b604482015260640161053a565b5050565b6060806060600061067e611765565b90508067ffffffffffffffff81111561069957610699611a29565b6040519080825280602002602001820160405280156106c2578160200160208202803683370190505b5093508067ffffffffffffffff8111156106de576106de611a29565b604051908082528060200260200182016040528015610707578160200160208202803683370190505b5092508067ffffffffffffffff81111561072357610723611a29565b60405190808252806020026020018201604052801561074c578160200160208202803683370190505b5091506000805b6003548110801561076357508282105b156108705760006003828154811061077d5761077d611bb4565b60009182526020808320909101548083526002918290526040909220015490915060ff1680156107b157506107b1816116bd565b1561085d57808784815181106107c9576107c9611bb4565b60209081029190910181019190915260008281526002909152604090205486516001600160a01b039091169087908590811061080757610807611bb4565b6001600160a01b03909216602092830291909101820152600082815260029091526040902060010154855186908590811061084457610844611bb4565b60209081029190910101528261085981611be0565b9350505b508061086881611be0565b915050610753565b505050909192565b610880611805565b8061088a816116bd565b6108cd5760405162461bcd60e51b8152602060048201526014602482015273151bdad95b88191bd95cc81b9bdd08195e1a5cdd60621b604482015260640161053a565b600082815260026020818152604092839020835160608101855281546001600160a01b031681526001820154928101929092529091015460ff161515918101829052906109525760405162461bcd60e51b81526020600482015260136024820152724e4654206973206e6f7420666f722073616c6560681b604482015260640161053a565b806020015134101561099d5760405162461bcd60e51b8152602060048201526014602482015273125b9cdd59999a58da595b9d081c185e5b595b9d60621b604482015260640161053a565b80516001600160a01b031633036109f65760405162461bcd60e51b815260206004820152601760248201527f43616e6e6f742062757920796f7572206f776e204e4654000000000000000000604482015260640161053a565b80516005546040516331a9108f60e11b8152600481018690526001600160a01b039283169290911690636352211e90602401602060405180830381865afa158015610a45573d6000803e3d6000fd5b505050506040513d601f19601f82011682018060405250810190610a699190611bf9565b6001600160a01b031614610abf5760405162461bcd60e51b815260206004820152601e60248201527f53656c6c6572206e6f206c6f6e676572206f776e732074686973204e46540000604482015260640161053a565b8051602082015160045460009061271090610ada9084611c16565b610ae49190611c2d565b90506000610af28284611c4f565b600088815260026020819052604090912001805460ff191690559050610b178761182f565b6006546040516309b0d1db60e11b8152600481018990526001600160a01b0390911690631361a3b690602401600060405180830381600087803b158015610b5d57600080fd5b505af1925050508015610b6e575060015b50600554604051632142170760e11b81526001600160a01b038681166004830152336024830152604482018a9052909116906342842e0e90606401600060405180830381600087803b158015610bc357600080fd5b505af1158015610bd7573d6000803e3d6000fd5b505050506000811115610c89576000846001600160a01b03168260405160006040518083038185875af1925050503d8060008114610c31576040519150601f19603f3d011682016040523d82523d6000602084013e610c36565b606091505b5050905080610c875760405162461bcd60e51b815260206004820152601860248201527f5061796d656e7420746f2073656c6c6572206661696c65640000000000000000604482015260640161053a565b505b82341115610d34576000610c9d8434611c4f565b604051909150600090339083908381818185875af1925050503d8060008114610ce2576040519150601f19603f3d011682016040523d82523d6000602084013e610ce7565b606091505b5050905080610d315760405162461bcd60e51b81526020600482015260166024820152751499599d5b99081d1bc8189d5e595c8819985a5b195960521b604482015260640161053a565b50505b336001600160a01b0316846001600160a01b0316887f8562eb94748e30bb0071e932744ce902b460c683474fcb3bfd567ffa16b1afb286604051610d7a91815260200190565b60405180910390a4505050505050610d9160018055565b50565b610d9c611738565b610da660006118e7565b565b6000610db2611765565b905090565b6005546003546000918291829182916001600160a01b0390911690610dda611765565b600454935093509350935090919293565b610df3611738565b6000818152600260208190526040909120015460ff16610e495760405162461bcd60e51b8152602060048201526011602482015270139195081a5cc81b9bdd081b1a5cdd1959607a1b604482015260640161053a565b600081815260026020819052604090912080549101805460ff191690556001600160a01b0316610e788261182f565b6040516001600160a01b0382169083907fef1499b350e05776e60cd2ffcac001569a28e9d574e1f3adc1b3ab264f8ccffd90600090a35050565b81610ebc816116bd565b610eff5760405162461bcd60e51b8152602060048201526014602482015273151bdad95b88191bd95cc81b9bdd08195e1a5cdd60621b604482015260640161053a565b60008211610f4f5760405162461bcd60e51b815260206004820152601c60248201527f5072696365206d7573742062652067726561746572207468616e203000000000604482015260640161053a565b6005546040516331a9108f60e11b81526004810185905233916001600160a01b031690636352211e90602401602060405180830381865afa158015610f98573d6000803e3d6000fd5b505050506040513d601f19601f82011682018060405250810190610fbc9190611bf9565b6001600160a01b03161461100b5760405162461bcd60e51b8152602060048201526016602482015275165bdd48191bdb89dd081bdddb881d1a1a5cc813919560521b604482015260640161053a565b60055460405163020604bf60e21b81526004810185905230916001600160a01b03169063081812fc90602401602060405180830381865afa158015611054573d6000803e3d6000fd5b505050506040513d601f19601f820116820180604052508101906110789190611bf9565b6001600160a01b031614806110fa575060055460405163e985e9c560e01b81523360048201523060248201526001600160a01b039091169063e985e9c590604401602060405180830381865afa1580156110d6573d6000803e3d6000fd5b505050506040513d601f19601f820116820180604052508101906110fa9190611c62565b6111465760405162461bcd60e51b815260206004820152601860248201527f4d61726b6574706c616365206e6f7420617070726f7665640000000000000000604482015260640161053a565b6000838152600260208190526040909120015460ff161561119e5760405162461bcd60e51b815260206004820152601260248201527113919508185b1c9958591e481b1a5cdd195960721b604482015260640161053a565b6000838152600260205260409020546001600160a01b03166111f057600380546001810182556000919091527fc2575a0e9e593c00f959f8c92f12db2869c3395a3b0502d05e2516446f71f85b018390555b60408051606081018252338082526020808301868152600184860181815260008a8152600280865290889020965187546001600160a01b0319166001600160a01b03909116178755925191860191909155519301805460ff191693151593909317909255915184815285917f5f9c03de076f5063cd3ebcfe8ef7aa8af378e4b35a83c77ba9777e97083879a2910160405180910390a3505050565b6060806060835167ffffffffffffffff8111156112aa576112aa611a29565b6040519080825280602002602001820160405280156112d3578160200160208202803683370190505b509250835167ffffffffffffffff8111156112f0576112f0611a29565b604051908082528060200260200182016040528015611319578160200160208202803683370190505b509150835167ffffffffffffffff81111561133657611336611a29565b60405190808252806020026020018201604052801561135f578160200160208202803683370190505b50905060005b845181101561146b5760006002600087848151811061138657611386611bb4565b6020908102919091018101518252818101929092526040908101600020815160608101835281546001600160a01b031680825260018301549482019490945260029091015460ff1615159181019190915286519092508690849081106113ee576113ee611bb4565b60200260200101906001600160a01b031690816001600160a01b031681525050806020015184838151811061142557611425611bb4565b602002602001018181525050806040015183838151811061144857611448611bb4565b91151560209283029190910190910152508061146381611be0565b915050611365565b509193909250565b6060600061147f611765565b905060008167ffffffffffffffff81111561149c5761149c611a29565b6040519080825280602002602001820160405280156114c5578160200160208202803683370190505b5090506000805b600354811080156114dc57508382105b1561156e576000600382815481106114f6576114f6611bb4565b60009182526020808320909101548083526002918290526040909220015490915060ff16801561152a575061152a816116bd565b1561155b578084848151811061154257611542611bb4565b60209081029190910101528261155781611be0565b9350505b508061156681611be0565b9150506114cc565b50909392505050565b60008181526002602052604090205481906001600160a01b031633146115d85760405162461bcd60e51b81526020600482015260166024820152752cb7ba9030b932903737ba103a34329039b2b63632b960511b604482015260640161053a565b6000828152600260208190526040909120015460ff1661162e5760405162461bcd60e51b8152602060048201526011602482015270139195081a5cc81b9bdd081b1a5cdd1959607a1b604482015260640161053a565b600082815260026020819052604090912001805460ff191690556116518261182f565b604051339083907fef1499b350e05776e60cd2ffcac001569a28e9d574e1f3adc1b3ab264f8ccffd90600090a35050565b61168a611738565b6001600160a01b0381166116b457604051631e4fbdf760e01b81526000600482015260240161053a565b610d91816118e7565b6005546040516331a9108f60e11b8152600481018390526000916001600160a01b031690636352211e90602401602060405180830381865afa925050508015611723575060408051601f3d908101601f1916820190925261172091810190611bf9565b60015b61172f57506000919050565b50600192915050565b6000546001600160a01b03163314610da65760405163118cdaa760e01b815233600482015260240161053a565b600080805b6003548110156117ff57600260006003838154811061178b5761178b611bb4565b6000918252602080832090910154835282019290925260400190206002015460ff1680156117da57506117da600382815481106117ca576117ca611bb4565b90600052602060002001546116bd565b156117ed57816117e981611be0565b9250505b806117f781611be0565b91505061176a565b50919050565b60026001540361182857604051633ee5aeb560e01b815260040160405180910390fd5b6002600155565b60005b60035481101561066b57816003828154811061185057611850611bb4565b9060005260206000200154036118d5576003805461187090600190611c4f565b8154811061188057611880611bb4565b90600052602060002001546003828154811061189e5761189e611bb4565b60009182526020909120015560038054806118bb576118bb611c84565b600190038181906000526020600020016000905590555050565b806118df81611be0565b915050611832565b600080546001600160a01b038381166001600160a01b0319831681178455604051919092169283917f8be0079c531659141344cd1fd0a4f28419497f9722a3daafe3b4186f6b6457e09190a35050565b60006020828403121561194957600080fd5b5035919050565b600081518084526020808501945080840160005b8381101561198057815187529582019590820190600101611964565b509495945050505050565b600081518084526020808501945080840160005b838110156119805781516001600160a01b03168752958201959082019060010161199f565b6060815260006119d76060830186611950565b82810360208401526119e9818661198b565b905082810360408401526119fd8185611950565b9695505050505050565b60008060408385031215611a1a57600080fd5b50508035926020909101359150565b634e487b7160e01b600052604160045260246000fd5b60006020808385031215611a5257600080fd5b823567ffffffffffffffff80821115611a6a57600080fd5b818501915085601f830112611a7e57600080fd5b813581811115611a9057611a90611a29565b8060051b604051601f19603f83011681018181108582111715611ab557611ab5611a29565b604052918252848201925083810185019188831115611ad357600080fd5b938501935b82851015611af157843584529385019392850192611ad8565b98975050505050505050565b606081526000611b10606083018661198b565b602083820381850152611b238287611950565b8481036040860152855180825282870193509082019060005b81811015611b5a578451151583529383019391830191600101611b3c565b509098975050505050505050565b602081526000611b7b6020830184611950565b9392505050565b6001600160a01b0381168114610d9157600080fd5b600060208284031215611ba957600080fd5b8135611b7b81611b82565b634e487b7160e01b600052603260045260246000fd5b634e487b7160e01b600052601160045260246000fd5b600060018201611bf257611bf2611bca565b5060010190565b600060208284031215611c0b57600080fd5b8151611b7b81611b82565b80820281158282048414176104de576104de611bca565b600082611c4a57634e487b7160e01b600052601260045260246000fd5b500490565b818103818111156104de576104de611bca565b600060208284031215611c7457600080fd5b81518015158114611b7b57600080fd5b634e487b7160e01b600052603160045260246000fdfea2646970667358221220c4f830392fadab8f94b680b1636a0ea77ee05e24e431c8f42bebd9c638dc794c64736f6c63430008140033",
  "linkReferences": {},
  "deployedLinkReferences": {}
}